:02000000AB282B
:0E0006008312031321088A00200882000800DC
:10001400710DF80DF90D7408F8027508031C750FBD
:10002400F902F00DF10D0F30FC00710DF80DF90D12
:100034007408701C2328F8027508031C750FF90254
:100044002828F80775080318750FF907F00DF10D46
:10005400FC0B1728701834287408F807750803185F
:08006400750FF9070000080008
:10006C00831203137408003A031D45287508003ADF
:10007C00031D4528FF30F0007F30F1009E288312CD
:10008C000313FD01F901F801710870040319003420
:10009C0071087506FA00FA1BFD09FB01F51F5B28B8
:1000AC00F409F509F40A0319F50AF11F6228F0099D
:1000BC00F109F00A0319F10A71087504FA00FA1B28
:1000CC0077280A207B188A28FD1F0034F009F109D3
:1000DC00F00A0319F10AF809F909F80A0319F90ADF
:1000EC000034F51F8628F11B82287108F90070086E
:1000FC00F800F101F0016A28F101F001F00A003476
:10010C00F109F009FB0A6728F80A0319F90A7408BF
:10011C007802031D6A2875087902031D6A28F90103
:10012C00F801F00A0319F10AF11F6A280000FF34E4
:02013C000800B9
:10013E0003208A110A128000840AA00A0319A10A58
:08014E00F003031D9F280800C7
:1001560083120313A201A301073083169F008501B2
:100166008601870188010330890083128501091CF5
:100176005F2A213086001430A2000030A3008030B0
:100186002306F00080307002031DCB2800302202C7
:10019600031C3A290A30F4000030F5002208F0006A
:1001A6002308F10036207808F0007908F10070087D
:1001B600A4007108A5000A30F4000030F5002208FA
:1001C600F0002308F10036200430F3007008F20036
:1001D60073080319F228F20D7210FF3EEC2824086A
:1001E6007207880003302207A60023080318013E81
:1001F600A7000A30F4000030F5002608F0002708B2
:10020600F10036207808F0007908F1007008A400A3
:100216007108A5000A30F4000030F5002608F00049
:100226002708F10036200430F3007008F200730846
:1002360003192129F20D7210FF3E1B2924087207AB
:1002460087000B30FB002630FC005D30FD00FD0B07
:100256002A29FC0B2A29FB0B2A2900000000091871
:1002660035293A290130A202031CA303C228113002
:1002760086000330A2000030A30080302306F00081
:1002860080307002031D492900302202031C8D298B
:100296000A30F4000030F5002208F0002308F100CF
:1002A60036207808F0007908F1007008A40071087B
:1002B600A5000A30F4000030F5002208F0002308FB
:1002C600F10036200430F3007008F20073080319B9
:1002D6007029F20D7210FF3E6A2924087207F00099
:1002E60070088800700887000B30FB002630FC0081
:1002F6005D30FD00FD0B7D29FC0B7D29FB0B7D2967
:1003060000000000091888298D290130A202031C6B
:10031600A30340290C3086000C30A2000030A30055
:1003260080302306F00080307002031D9C290030C7
:100336002202031C0B2A0A30F4000030F5002208C2
:10034600F0002308F10036207808F0007908F10063
:100356007008A4007108A5000A30F4000030F5000A
:100366002208F0002308F10036200430F30070085C
:10037600F20073080319C329F20D7210FF3EBD295E
:1003860024087207870003302207A60023080318F3
:10039600013EA7000A30F4000030F5002608F00000
:1003A6002708F10036207808F0007908F100700877
:1003B600A4007108A5000A30F4000030F5002608F4
:1003C600F0002708F10036200430F3007008F20030
:1003D60073080319F229F20D7210FF3EEC29240866
:1003E600720788000B30FB002630FC005D30FD00F4
:1003F600FD0BFB29FC0BFB29FB0BFB290000000076
:100406000918062A0B2A0130A202031CA30393290A
:100416000A3086000330A2000030A3008030230695
:10042600F00080307002031D1A2A00302202031CDD
:100436005E2A0A30F4000030F5002208F000230896
:10044600F10036207808F0007908F1007008A40061
:100456007108A5000A30F4000030F5002208F0000B
:100466002308F10036200430F3007008F200730808
:100476000319412AF20D7210FF3E3B2A2408720727
:10048600F00070088700700888000B30FB002630EB
:10049600FC005D30FD00FD0B4E2AFC0B4E2AFB0BCB
:1004A6004E2A000000000918592A5E2A0130A202CD
:1004B600031CA303112A1C2B891CBF2A1430860097
:1004C6000330A2000030A30080302306F000803005
:1004D6007002031D702A00302202031CB72A0A305C
:1004E600F4000030F5002208F0002308F100362061
:1004F6007808F0007908F1007008A4007108A500DA
:100506000A30F4000030F5002208F0002308F1005C
:1005160036200430F3007008F20073080319972A96
:10052600F20D7210FF3E912A24087207F00070083F
:100536008700700888000B30FB002630FC005D3019
:10054600FD00FD0BA42AFC0BA42AFB0BA42A000029
:1005560000008918AF2AB72A091CB22AB72A013027
:10056600A202031CA303672A21308600891CBE2A27
:100576000918BE2AB92A1C2B223086000330A20095
:100586000030A30080302306F00080307002031D87
:10059600CE2A00302202031C152B0A30F40000304C
:1005A600F5002208F0002308F10036207808F00054
:1005B6007908F1007008A4007108A5000A30F4005B
:1005C6000030F5002208F0002308F1003620043040
:1005D600F3007008F20073080319F52AF20D721081
:1005E600FF3EEF2A24087207F000700887007008A3
:1005F60088000B30FB002630FC005D30FD00FD0B53
:10060600022BFC0B022BFB0B022B00000000891CAB
:100616000D2B152B091C102B152B0130A202031CC8
:10062600A303C52A0C30860089181C2B09181C2B1D
:06063600172BBA281D2B52
:02400E004A2F37
:00000001FF
